S01200007761726D5F666C6F6F722E73726563DA
S11300000C9434000C949F010C9449000C94490006
S11300100C9449000C9449000C9449000C94490038
S11300200C9449000C9449000C9449000C94490028
S11300300C9449000C9449000C9449000C94490018
S11300400C9449000C9449000C9449000C94490008
S11300500C9449000C9449000C9449000C944900F8
S11300600C9449000C94490011241FBECFEFD8E032
S1130070DEBFCDBF11E0A0E0B1E0E2EEF5E002C0EA
S113008005900D92AC30B107D9F70E94EB010C94A6
S1130090EF020C9400008FEF84B915B887B1836028
S11300A087B983E088B90895E82F60E070E080E0C4
S11300B090E0F0E09F01062E02C0359527950A9442
S11300C0E2F720FF13C01616170664F441E050E06F
S11300D020E030E0440F551F2F5F3F4F26173707AE
S11300E0C9F702C041E050E0840F951F6F5F7F4F56
S11300F068307105F9F608951F93CF93DF93182F95
S1130100117086950E9454006AE070E00E94C70254
S11301102AE030E0DC01A050BF4F51E093E0FB0146
S1130120E050FF4F82E04C9145B911112F9A58B914
S1130130C1EED4E02197F1F700C0000098B9C9EFEF
S1130140D0E02197F1F700C00000408145B988B99B
S1130150C1EED4E02197F1F700C0000098B9C9EFCF
S1130160D0E02197F1F700C0000021503109D9F601
S1130170DF91CF911F9108951F93CF93DF93182F91
S1130180D62FC5E08FE493EC0197F1F700C000008F
S1130190812F0E947C008FE493EC0197F1F700C05B
S11301A00000812F0E947C008FE493EC0197F1F70B
S11301B000C00000812F0E947C008D2F0E947C00D3
S11301C08D2F0E947C008D2F0E947C00C150D1F69F
S11301D0DF91CF911F91089525E030E0FC01E050BC
S11301E0FF4F71E093E069E752E0408145B978B987
S11301F0A1EEB4E01197F1F700C0000098B9A9EF9F
S1130200B0E01197F1F700C0000065B958B9A1EE4C
S1130210B4E01197F1F700C0000098B9A9EFB0E07D
S11302201197F1F700C0000021503109F1F608954B
S1130230F894579A5F9888EC8A95F1F75F9A90E161
S11302409A95F1F700C0579889B190E59A95F1F71E
S1130250579A5F9A94E69A95F1F78095881F8827B4
S1130260881F0895F894579A98E080E05F98282FA3
S113027030E035952795822F00C000005F9A57988B
S113028044E04A95F1F74F998068579A5F9A2FE0B6
S11302902A95F1F700C000C00000915039F7089585
S11302A0F89428E030E05F9895E09A95F1F780FFA4
S11302B002C05F9A01C05F989FE09A95F1F7869516
S11302C05F9A00C02150310971F778940895CF9353
S11302D00E9418018CEC0E94500184E40E94500199
S11302E087EA91E60197F1F700C000000E94180127
S11302F08CEC0E9450018EEB0E9450010E9432014E
S1130300C82F0E94320120E2829FC0011124C695A9
S1130310C695C6958C2BCF9108950E9418018CEC3C
S11303200E9450018EE40E94500180E00E9450011E
S113033080E00E94500180E00E94500108951F92C5
S11303400F920FB60F9211242F933F934F935F9305
S11303506F937F938F939F93AF93BF93CF93DF93C9
S1130360EF93FF934A9B24C0C0E0D0E002C04A9BB5
S11303701FC04D9B13C04E9B08C080910B01815040
S113038080930B01C0E0D0E009C04E9907C0809172
S11303900B018F5F80930B01C0E0D0E04D99FECF3D
S11303A080910B010E947C002196C436D105FCF299
S11303B0FF91EF91DF91CF91BF91AF919F918F9179
S11303C07F916F915F914F913F912F910F900FBE4D
S11303D00F901F9018950E944B0057985F9A0E94A7
S11303E01801811111C0C2E381E090E00E94EC0089
S11303F0C150D1F72FE58AEE90E021508040904023
S1130400E1F700C00000EBCF0E946F020E94B90226
S11304100E948D018AB18F798AB9E9E6F0E0808182
S113042082608083E89A5A9A78940E946701D82F50
S11304308D2F0E9454008C0180910B010E94540066
S1130440081B190B03301105DCF0CAE00E9473028B
S11304500E9473020E9473020E9473020E9473023C
S11304604C9906C082E090E00E94EC004C9BFACFCD
S1130470C15061F76D2F80910B010E94BC00D8CF51
S113048080910B010E9454008C018D2F0E94540016
S1130490081B190B03301105DCF0CAE00E9494021A
S11304A00E9494020E9494020E9494020E94940268
S11304B04B9906C082E090E00E94EC004B9BFACF7F
S11304C0C15061F76D2F80910B010E94BC00D8CF01
S11304D0C4E68D2F0E947C00C150D9F7A6CF87B106
S11304E08C6387B9089588E288B989EF90E0019711
S11304F0F1F700C0000088E188B989EF90E0019726
S1130500F1F700C0000084E188B989EF90E0019719
S1130510F1F700C0000084E288B989EF90E0019708
S1130520F1F700C00000089588B1886288B989EFA6
S113053090E00197F1F700C0000088B1846288B9A7
S113054089EF90E00197F1F700C0000088B1846161
S113055088B989EF90E00197F1F700C0000088B1F5
S1130560886188B989EF90E00197F1F700C0000035
S113057008958AB1877E8AB98BB188618BB94C9B07
S113058004C00E9473024C99FCCF18B8089597FBDD
S1130590072E16F4009407D077FD09D00E94DB02E1
S11305A007FC05D03EF4909581959F4F0895709572
S11305B061957F4F0895AA1BBB1B51E107C0AA1F79
S11305C0BB1FA617B70710F0A61BB70B881F991FF0
S11305D05A95A9F780959095BC01CD010895F8949A
S10505E0FFCF47
S10F05E23F065B4F666D7D077F6F794814
S9030000FC
