S00F0000456E636F6465722E7372656355
S113000009C00EC00DC00CC00BC00AC009C008C096
S113001007C006C011241FBECFE9CDBF02D042C025
S1130020EFCF87B38C7F87BB88B3836088BB87B3EC
S11300308C6087BB88B3837F88BBB09918C0B09BA2
S1130040FECFC29A8FE493EC0197F1F700C0000051
S1130050C39A8FE493EC0197F1F700C00000C298B3
S11300608FE493EC0197F1F700C00000C398B199B5
S1130070E4CFB19BFECFC39A8FE493EC0197F1F7E1
S113008000C00000C29A8FE493EC0197F1F700C01E
S11300900000C3988FE493EC0197F1F700C00000CF
S10B00A0C298CBCFF894FFCF06
S9030000FC
